{
  "contractName": "Twitter",
  "abi": [
    {
      "anonymous": false,
      "inputs": [
        {
          "indexed": false,
          "internalType": "uint256",
          "name": "tweetOwner",
          "type": "uint256"
        },
        {
          "indexed": false,
          "internalType": "uint256",
          "name": "tweetId",
          "type": "uint256"
        },
        {
          "indexed": false,
          "internalType": "uint256",
          "name": "tweetTime",
          "type": "uint256"
        },
        {
          "indexed": false,
          "internalType": "string",
          "name": "tweetMsg",
          "type": "string"
        }
      ],
      "name": "CreateTweet",
      "type": "event"
    },
    {
      "anonymous": false,
      "inputs": [
        {
          "indexed": false,
          "internalType": "uint256",
          "name": "tweetOwner",
          "type": "uint256"
        }
      ],
      "name": "DeleteTweet",
      "type": "event"
    },
    {
      "anonymous": false,
      "inputs": [
        {
          "indexed": false,
          "internalType": "uint256",
          "name": "tweetId",
          "type": "uint256"
        },
        {
          "indexed": false,
          "internalType": "uint256",
          "name": "tweetTime",
          "type": "uint256"
        },
        {
          "indexed": false,
          "internalType": "string",
          "name": "tweetMsg",
          "type": "string"
        }
      ],
      "name": "UpdateTweet",
      "type": "event"
    },
    {
      "inputs": [
        {
          "internalType": "uint256",
          "name": "",
          "type": "uint256"
        }
      ],
      "name": "tweetToOwner",
      "outputs": [
        {
          "internalType": "address",
          "name": "",
          "type": "address"
        }
      ],
      "stateMutability": "view",
      "type": "function"
    },
    {
      "inputs": [
        {
          "internalType": "uint256",
          "name": "",
          "type": "uint256"
        }
      ],
      "name": "tweets",
      "outputs": [
        {
          "internalType": "uint256",
          "name": "tweetOwner",
          "type": "uint256"
        },
        {
          "internalType": "uint256",
          "name": "tweetId",
          "type": "uint256"
        },
        {
          "internalType": "uint256",
          "name": "tweetTime",
          "type": "uint256"
        },
        {
          "internalType": "string",
          "name": "tweetMsg",
          "type": "string"
        }
      ],
      "stateMutability": "view",
      "type": "function"
    },
    {
      "inputs": [
        {
          "internalType": "uint256",
          "name": "owner",
          "type": "uint256"
        },
        {
          "internalType": "string",
          "name": "tweetMsg",
          "type": "string"
        }
      ],
      "name": "_createTweet",
      "outputs": [],
      "stateMutability": "nonpayable",
      "type": "function"
    },
    {
      "inputs": [
        {
          "internalType": "uint256",
          "name": "owner",
          "type": "uint256"
        }
      ],
      "name": "_readTweet",
      "outputs": [
        {
          "internalType": "string",
          "name": "",
          "type": "string"
        }
      ],
      "stateMutability": "view",
      "type": "function"
    },
    {
      "inputs": [
        {
          "internalType": "uint256",
          "name": "owner",
          "type": "uint256"
        },
        {
          "internalType": "string",
          "name": "tweetMsg",
          "type": "string"
        }
      ],
      "name": "_updateTweet",
      "outputs": [],
      "stateMutability": "nonpayable",
      "type": "function"
    },
    {
      "inputs": [
        {
          "internalType": "uint256",
          "name": "owner",
          "type": "uint256"
        }
      ],
      "name": "_deleteTweet",
      "outputs": [],
      "stateMutability": "nonpayable",
      "type": "function"
    },
    {
      "inputs": [
        {
          "internalType": "address",
          "name": "owner",
          "type": "address"
        }
      ],
      "name": "getTweetsByOwner",
      "outputs": [
        {
          "internalType": "uint256[]",
          "name": "",
          "type": "uint256[]"
        }
      ],
      "stateMutability": "view",
      "type": "function"
    }
  ],
  "bytecode": "0x608060405234801561001057600080fd5b506111a9806100206000396000f3fe608060405234801561001057600080fd5b506004361061007d5760003560e01c8063637b958d1161005b578063637b958d146100ea578063c30064ad1461011a578063e7e6a77514610136578063e8d857b0146101665761007d565b8063185d0ec41461008257806341e0d3061461009e5780634461fa00146100ce575b600080fd5b61009c60048036038101906100979190610c90565b610199565b005b6100b860048036038101906100b39190610c67565b61031b565b6040516100c59190610dc0565b60405180910390f35b6100e860048036038101906100e39190610c90565b61034e565b005b61010460048036038101906100ff9190610c3e565b6104b5565b6040516101119190610ddb565b60405180910390f35b610134600480360381019061012f9190610c67565b610654565b005b610150600480360381019061014b9190610c67565b61086e565b60405161015d9190610dfd565b60405180910390f35b610180600480360381019061017b9190610c67565b610a01565b6040516101909493929190610e78565b60405180910390f35b6001604051806080016040528084815260200160005481526020014281526020018381525090806001815401808255809150506001900390600052602060002090600402016000909190919091506000820151816000015560208201518160010155604082015181600201556060820151816003019080519060200190610221929190610ac9565b50505060018054905060008190555033600260008054815260200190815260200160002060006101000a81548173ffffffffffffffffffffffffffffffffffffffff021916908373ffffffffffffffffffffffffffffffffffffffff160217905550600360003373ffffffffffffffffffffffffffffffffffffffff1673ffffffffffffffffffffffffffffffffffffffff16815260200190815260200160002060008154809291906102d39061105e565b91905055507ffbdc8fcb225a79ddb98d2a84207385e7befa1da79e6c3eb631e5559421cffcf682600054428460405161030f9493929190610e78565b60405180910390a15050565b60026020528060005260406000206000915054906101000a900473ffffffffffffffffffffffffffffffffffffffff1681565b60005b6001805490508110156104b0578260018281548110610399577f4e487b7100000000000000000000000000000000000000000000000000000000600052603260045260246000fd5b906000526020600020906004020160000154141561049d5742600182815481106103ec577f4e487b7100000000000000000000000000000000000000000000000000000000600052603260045260246000fd5b906000526020600020906004020160020181905550816001828154811061043c577f4e487b7100000000000000000000000000000000000000000000000000000000600052603260045260246000fd5b90600052602060002090600402016003019080519060200190610460929190610ac9565b507f48ade52bf449dc650434ee33d1e980a298191c04faa6fdf3c1f8a23d80b8d45d83428460405161049493929190610e3a565b60405180910390a15b80806104a89061105e565b915050610351565b505050565b60606000600360008473ffffffffffffffffffffffffffffffffffffffff1673ffffffffffffffffffffffffffffffffffffffff1681526020019081526020016000205467ffffffffffffffff811115610538577f4e487b7100000000000000000000000000000000000000000000000000000000600052604160045260246000fd5b6040519080825280602002602001820160405280156105665781602001602082028036833780820191505090505b5090506000805b600180549050811015610649578473ffffffffffffffffffffffffffffffffffffffff166002600083815260200190815260200160002060009054906101000a900473ffffffffffffffffffffffffffffffffffffffff1673ffffffffffffffffffffffffffffffffffffffff161415610636578083838151811061061b577f4e487b7100000000000000000000000000000000000000000000000000000000600052603260045260246000fd5b60200260200101818152505081806106329061105e565b9250505b80806106419061105e565b91505061056d565b508192505050919050565b60005b60018054905081101561086a57816001828154811061069f577f4e487b7100000000000000000000000000000000000000000000000000000000600052603260045260246000fd5b9060005260206000209060040201600001541415610857576001600360003373ffffffffffffffffffffffffffffffffffffffff1673ffffffffffffffffffffffffffffffffffffffff16815260200190815260200160002060008282546107079190610f7a565b925050819055506000600260006001848154811061074e577f4e487b7100000000000000000000000000000000000000000000000000000000600052603260045260246000fd5b906000526020600020906004020160010154815260200190815260200160002060006101000a81548173ffffffffffffffffffffffffffffffffffffffff021916908373ffffffffffffffffffffffffffffffffffffffff160217905550600181815481106107e6577f4e487b7100000000000000000000000000000000000000000000000000000000600052603260045260246000fd5b90600052602060002090600402016000808201600090556001820160009055600282016000905560038201600061081d9190610b4f565b50507f9c0cce8d563144cb9d17b3b2fae510e37811e7065b35355f0c438d8cdcdcbd928260405161084e9190610e1f565b60405180910390a15b80806108629061105e565b915050610657565b5050565b606060005b6001805490508110156109c25782600182815481106108bb577f4e487b7100000000000000000000000000000000000000000000000000000000600052603260045260246000fd5b90600052602060002090600402016000015414156109af576001818154811061090d577f4e487b7100000000000000000000000000000000000000000000000000000000600052603260045260246000fd5b906000526020600020906004020160030180546109299061102c565b80601f01602080910402602001604051908101604052809291908181526020018280546109559061102c565b80156109a25780601f10610977576101008083540402835291602001916109a2565b820191906000526020600020905b81548152906001019060200180831161098557829003601f168201915b50505050509150506109fc565b80806109ba9061105e565b915050610873565b506040518060400160405280601481526020017f556e61626c6520746f207265616420747765657400000000000000000000000081525090505b919050565b60018181548110610a1157600080fd5b9060005260206000209060040201600091509050806000015490806001015490806002015490806003018054610a469061102c565b80601f0160208091040260200160405190810160405280929190818152602001828054610a729061102c565b8015610abf5780601f10610a9457610100808354040283529160200191610abf565b820191906000526020600020905b815481529060010190602001808311610aa257829003601f168201915b5050505050905084565b828054610ad59061102c565b90600052602060002090601f016020900481019282610af75760008555610b3e565b82601f10610b1057805160ff1916838001178555610b3e565b82800160010185558215610b3e579182015b82811115610b3d578251825591602001919060010190610b22565b5b509050610b4b9190610b8f565b5090565b508054610b5b9061102c565b6000825580601f10610b6d5750610b8c565b601f016020900490600052602060002090810190610b8b9190610b8f565b5b50565b5b80821115610ba8576000816000905550600101610b90565b5090565b6000610bbf610bba84610ef5565b610ec4565b905082815260208101848484011115610bd757600080fd5b610be2848285610fea565b509392505050565b600081359050610bf981611145565b92915050565b600082601f830112610c1057600080fd5b8135610c20848260208601610bac565b91505092915050565b600081359050610c388161115c565b92915050565b600060208284031215610c5057600080fd5b6000610c5e84828501610bea565b91505092915050565b600060208284031215610c7957600080fd5b6000610c8784828501610c29565b91505092915050565b60008060408385031215610ca357600080fd5b6000610cb185828601610c29565b925050602083013567ffffffffffffffff811115610cce57600080fd5b610cda85828601610bff565b9150509250929050565b6000610cf08383610da2565b60208301905092915050565b610d0581610fae565b82525050565b6000610d1682610f35565b610d208185610f58565b9350610d2b83610f25565b8060005b83811015610d5c578151610d438882610ce4565b9750610d4e83610f4b565b925050600181019050610d2f565b5085935050505092915050565b6000610d7482610f40565b610d7e8185610f69565b9350610d8e818560208601610ff9565b610d9781611134565b840191505092915050565b610dab81610fe0565b82525050565b610dba81610fe0565b82525050565b6000602082019050610dd56000830184610cfc565b92915050565b60006020820190508181036000830152610df58184610d0b565b905092915050565b60006020820190508181036000830152610e178184610d69565b905092915050565b6000602082019050610e346000830184610db1565b92915050565b6000606082019050610e4f6000830186610db1565b610e5c6020830185610db1565b8181036040830152610e6e8184610d69565b9050949350505050565b6000608082019050610e8d6000830187610db1565b610e9a6020830186610db1565b610ea76040830185610db1565b8181036060830152610eb98184610d69565b905095945050505050565b6000604051905081810181811067ffffffffffffffff82111715610eeb57610eea611105565b5b8060405250919050565b600067ffffffffffffffff821115610f1057610f0f611105565b5b601f19601f8301169050602081019050919050565b6000819050602082019050919050565b600081519050919050565b600081519050919050565b6000602082019050919050565b600082825260208201905092915050565b600082825260208201905092915050565b6000610f8582610fe0565b9150610f9083610fe0565b925082821015610fa357610fa26110a7565b5b828203905092915050565b6000610fb982610fc0565b9050919050565b600073ffffffffffffffffffffffffffffffffffffffff82169050919050565b6000819050919050565b82818337600083830152505050565b60005b83811015611017578082015181840152602081019050610ffc565b83811115611026576000848401525b50505050565b6000600282049050600182168061104457607f821691505b60208210811415611058576110576110d6565b5b50919050565b600061106982610fe0565b91507fffffffffffffffffffffffffffffffffffffffffffffffffffffffffffffffff82141561109c5761109b6110a7565b5b600182019050919050565b7f4e487b7100000000000000000000000000000000000000000000000000000000600052601160045260246000fd5b7f4e487b7100000000000000000000000000000000000000000000000000000000600052602260045260246000fd5b7f4e487b7100000000000000000000000000000000000000000000000000000000600052604160045260246000fd5b6000601f19601f8301169050919050565b61114e81610fae565b811461115957600080fd5b50565b61116581610fe0565b811461117057600080fd5b5056fea26469706673582212206200712186c767b0995365d928eee109f4d68eae152491ea0a711452b320597864736f6c63430008000033",
  "immutableReferences": {},
  "source": "// SPDX-License-Identifier: MIT\r\npragma solidity >=0.8.0 <0.9.0;\r\n\r\n\r\ncontract Twitter {\r\n    struct Tweet {\r\n        uint256 tweetOwner;\r\n        uint256 tweetId;\r\n        uint256 tweetTime;\r\n        string tweetMsg;\r\n    }\r\n\r\n    uint256 tweetId;\r\n    Tweet[] public tweets;\r\n\r\n\r\n    // Event to notify\r\n    event CreateTweet(uint256 tweetOwner, uint256 tweetId,uint256 tweetTime, string tweetMsg);\r\n    event UpdateTweet(uint256 tweetId,uint256 tweetTime, string tweetMsg);\r\n    event DeleteTweet(uint256 tweetOwner);\r\n    \r\n    mapping (uint256 => address) public tweetToOwner;\r\n    mapping (address => uint256) tweetCount;\r\n\r\n\r\n    /**\r\n\t * @dev A function that creates new Tweet \r\n\t * @param owner The owners userId\r\n\t * @param tweetMsg The tweet message he wishes to post\r\n\t */    \r\n    function _createTweet(uint256 owner, string memory tweetMsg) public {\r\n        tweets.push(Tweet(owner, tweetId, block.timestamp, tweetMsg));\r\n        tweetId = tweets.length;\r\n        tweetToOwner[tweetId] = msg.sender;\r\n        tweetCount[msg.sender] ++;\r\n\r\n        emit CreateTweet(owner, tweetId, block.timestamp, tweetMsg);\r\n\t}\r\n    \r\n    /**\r\n     * @dev A function that Reads new Tweet\r\n     * @param owner The owners userId\r\n     */ \r\n    function _readTweet(uint256 owner) public view returns (string memory){\r\n        for (uint256 i = 0; i < tweets.length ; i++) {\r\n            if (tweets[i].tweetOwner == owner) {\r\n                return tweets[i].tweetMsg;\r\n            }\r\n        }\r\n        return \"Unable to read tweet\";\r\n    }\r\n\r\n    /**\r\n    * @dev A function that Updates an existing Tweet\r\n    * @param owner The owner userid to be updated\r\n    * @param tweetMsg The tweet message to be updated\r\n     */ \r\n    function _updateTweet(uint256 owner, string memory tweetMsg) public {\r\n        for (uint256 i = 0; i < tweets.length ; i++) {\r\n            if (tweets[i].tweetOwner == owner) {\r\n                tweets[i].tweetTime = block.timestamp;\r\n                tweets[i].tweetMsg = tweetMsg;\r\n                emit UpdateTweet(owner, block.timestamp, tweetMsg);\r\n            }\r\n        }\r\n    }\r\n\r\n    /**\r\n    * @dev A function that Updates an existing Tweet\r\n    * @param owner The owner userid to be updated\r\n     */\r\n    function _deleteTweet(uint256 owner) public {\r\n        for (uint256 i = 0; i < tweets.length ; i++) {\r\n            if (tweets[i].tweetOwner == owner) {\r\n                tweetCount[msg.sender] -= 1;\r\n                tweetToOwner[tweets[i].tweetId] = address(0);\r\n                delete tweets[i];\r\n                emit DeleteTweet(owner);\r\n            }\r\n        }\r\n    }\r\n\r\n    /**\r\n    * @dev A function that Updates an existing Tweet\r\n    * @param owner The owner userid to be updated\r\n     */\r\n    function getTweetsByOwner(address owner) external view returns(uint256[] memory) {\r\n        uint256[] memory result = new uint256[](tweetCount[owner]);\r\n        uint counter = 0;\r\n        for (uint i = 0; i < tweets.length; i++) {\r\n            if (tweetToOwner[i] == owner) {\r\n                result[counter] = i;\r\n                counter++;\r\n            }\r\n        }\r\n        return result;\r\n    }\r\n}",
  "sourcePath": "C:/Users/Subaandh/Blockchain/Twitter/contracts/Twitter.sol",
  "compiler": {
    "name": "solc",
    "version": "0.8.0+commit.c7dfd78e.Emscripten.clang"
  },
  "schemaVersion": "3.4.0",
  "updatedAt": "2021-05-27T17:37:34.981Z",
  "devdoc": {
    "kind": "dev",
    "methods": {
      "_createTweet(uint256,string)": {
        "details": "A function that creates new Tweet ",
        "params": {
          "owner": "The owners userId",
          "tweetMsg": "The tweet message he wishes to post"
        }
      },
      "_deleteTweet(uint256)": {
        "details": "A function that Updates an existing Tweet",
        "params": {
          "owner": "The owner userid to be updated"
        }
      },
      "_readTweet(uint256)": {
        "details": "A function that Reads new Tweet",
        "params": {
          "owner": "The owners userId"
        }
      },
      "_updateTweet(uint256,string)": {
        "details": "A function that Updates an existing Tweet",
        "params": {
          "owner": "The owner userid to be updated",
          "tweetMsg": "The tweet message to be updated"
        }
      },
      "getTweetsByOwner(address)": {
        "details": "A function that Updates an existing Tweet",
        "params": {
          "owner": "The owner userid to be updated"
        }
      }
    },
    "version": 1
  },
  "userdoc": {
    "kind": "user",
    "methods": {},
    "version": 1
  }
}