{
  "contractName": "Twitter",
  "abi": [
    {
      "anonymous": false,
      "inputs": [
        {
          "indexed": false,
          "internalType": "uint256",
          "name": "tweetOwner",
          "type": "uint256"
        },
        {
          "indexed": false,
          "internalType": "uint256",
          "name": "tweetId",
          "type": "uint256"
        },
        {
          "indexed": false,
          "internalType": "uint256",
          "name": "tweetTime",
          "type": "uint256"
        },
        {
          "indexed": false,
          "internalType": "string",
          "name": "tweetMsg",
          "type": "string"
        }
      ],
      "name": "CreateTweet",
      "type": "event"
    },
    {
      "anonymous": false,
      "inputs": [
        {
          "indexed": false,
          "internalType": "uint256",
          "name": "tweetOwner",
          "type": "uint256"
        }
      ],
      "name": "DeleteTweet",
      "type": "event"
    },
    {
      "anonymous": false,
      "inputs": [
        {
          "indexed": false,
          "internalType": "uint256",
          "name": "tweetOwner",
          "type": "uint256"
        },
        {
          "indexed": false,
          "internalType": "uint256",
          "name": "tweetId",
          "type": "uint256"
        },
        {
          "indexed": false,
          "internalType": "uint256",
          "name": "tweetTime",
          "type": "uint256"
        },
        {
          "indexed": false,
          "internalType": "string",
          "name": "tweetMsg",
          "type": "string"
        }
      ],
      "name": "ReadTweet",
      "type": "event"
    },
    {
      "anonymous": false,
      "inputs": [
        {
          "indexed": false,
          "internalType": "uint256",
          "name": "tweetId",
          "type": "uint256"
        },
        {
          "indexed": false,
          "internalType": "uint256",
          "name": "tweetTime",
          "type": "uint256"
        },
        {
          "indexed": false,
          "internalType": "string",
          "name": "tweetMsg",
          "type": "string"
        }
      ],
      "name": "UpdateTweet",
      "type": "event"
    },
    {
      "inputs": [
        {
          "internalType": "address",
          "name": "",
          "type": "address"
        }
      ],
      "name": "tweetCount",
      "outputs": [
        {
          "internalType": "uint256",
          "name": "",
          "type": "uint256"
        }
      ],
      "stateMutability": "view",
      "type": "function",
      "constant": true
    },
    {
      "inputs": [
        {
          "internalType": "uint256",
          "name": "",
          "type": "uint256"
        }
      ],
      "name": "tweetOwner",
      "outputs": [
        {
          "internalType": "address",
          "name": "",
          "type": "address"
        }
      ],
      "stateMutability": "view",
      "type": "function",
      "constant": true
    },
    {
      "inputs": [
        {
          "internalType": "uint256",
          "name": "",
          "type": "uint256"
        }
      ],
      "name": "tweets",
      "outputs": [
        {
          "internalType": "uint256",
          "name": "tweetOwner",
          "type": "uint256"
        },
        {
          "internalType": "uint256",
          "name": "tweetId",
          "type": "uint256"
        },
        {
          "internalType": "uint256",
          "name": "tweetTime",
          "type": "uint256"
        },
        {
          "internalType": "string",
          "name": "tweetMsg",
          "type": "string"
        }
      ],
      "stateMutability": "view",
      "type": "function",
      "constant": true
    },
    {
      "inputs": [
        {
          "internalType": "uint256",
          "name": "Owner",
          "type": "uint256"
        },
        {
          "internalType": "string",
          "name": "tweetMsg",
          "type": "string"
        }
      ],
      "name": "_createTweet",
      "outputs": [],
      "stateMutability": "nonpayable",
      "type": "function"
    },
    {
      "inputs": [
        {
          "internalType": "uint256",
          "name": "OwnerId",
          "type": "uint256"
        }
      ],
      "name": "_readTweet",
      "outputs": [],
      "stateMutability": "nonpayable",
      "type": "function"
    },
    {
      "inputs": [
        {
          "internalType": "uint256",
          "name": "ownerId",
          "type": "uint256"
        },
        {
          "internalType": "string",
          "name": "tweetMsg",
          "type": "string"
        }
      ],
      "name": "_updateTweet",
      "outputs": [],
      "stateMutability": "nonpayable",
      "type": "function"
    },
    {
      "inputs": [
        {
          "internalType": "uint256",
          "name": "ownerId",
          "type": "uint256"
        }
      ],
      "name": "_deleteTweet",
      "outputs": [],
      "stateMutability": "nonpayable",
      "type": "function"
    }
  ],
  "bytecode": "0x608060405234801561001057600080fd5b50611055806100206000396000f3fe608060405234801561001057600080fd5b506004361061007d5760003560e01c8063c30064ad1161005b578063c30064ad146100ea578063cbb7855714610106578063e7e6a77514610136578063e8d857b0146101525761007d565b8063185d0ec4146100825780634461fa001461009e57806389d6275e146100ba575b600080fd5b61009c60048036038101906100979190610b33565b610185565b005b6100b860048036038101906100b39190610b33565b610326565b005b6100d460048036038101906100cf9190610b0a565b61048d565b6040516100e19190610c5e565b60405180910390f35b61010460048036038101906100ff9190610b0a565b6104c0565b005b610120600480360381019061011b9190610ae1565b6106f2565b60405161012d9190610c79565b60405180910390f35b610150600480360381019061014b9190610b0a565b61070a565b005b61016c60048036038101906101679190610b0a565b6108a4565b60405161017c9493929190610cd2565b60405180910390f35b600260405180608001604052808481526020016000548152602001428152602001838152509080600181540180825580915050600190039060005260206000209060040201600090919091909150600082015181600001556020820151816001015560408201518160020155606082015181600301908051906020019061020d92919061096c565b50505060016002805490506102229190610dfc565b5033600360008054815260200190815260200160002060006101000a81548173ffffffffffffffffffffffffffffffffffffffff021916908373ffffffffffffffffffffffffffffffffffffffff160217905550600460003373ffffffffffffffffffffffffffffffffffffffff1673ffffffffffffffffffffffffffffffffffffffff16815260200190815260200160002060008154809291906102c690610f0a565b9190505550600160008154809291906102de90610f0a565b91905055507ffbdc8fcb225a79ddb98d2a84207385e7befa1da79e6c3eb631e5559421cffcf682600054428460405161031a9493929190610cd2565b60405180910390a15050565b60005b600280549050811015610488578260028281548110610371577f4e487b7100000000000000000000000000000000000000000000000000000000600052603260045260246000fd5b90600052602060002090600402016000015414156104755742600282815481106103c4577f4e487b7100000000000000000000000000000000000000000000000000000000600052603260045260246000fd5b9060005260206000209060040201600201819055508160028281548110610414577f4e487b7100000000000000000000000000000000000000000000000000000000600052603260045260246000fd5b9060005260206000209060040201600301908051906020019061043892919061096c565b507f48ade52bf449dc650434ee33d1e980a298191c04faa6fdf3c1f8a23d80b8d45d83428460405161046c93929190610c94565b60405180910390a15b808061048090610f0a565b915050610329565b505050565b60036020528060005260406000206000915054906101000a900473ffffffffffffffffffffffffffffffffffffffff1681565b60005b6002805490508110156106ee57816002828154811061050b577f4e487b7100000000000000000000000000000000000000000000000000000000600052603260045260246000fd5b90600052602060002090600402016000015414156106db576001600460003373ffffffffffffffffffffffffffffffffffffffff1673ffffffffffffffffffffffffffffffffffffffff16815260200190815260200160002060008282546105739190610dfc565b92505081905550600060036000600284815481106105ba577f4e487b7100000000000000000000000000000000000000000000000000000000600052603260045260246000fd5b906000526020600020906004020160010154815260200190815260200160002060006101000a81548173ffffffffffffffffffffffffffffffffffffffff021916908373ffffffffffffffffffffffffffffffffffffffff16021790555060028181548110610652577f4e487b7100000000000000000000000000000000000000000000000000000000600052603260045260246000fd5b90600052602060002090600402016000808201600090556001820160009055600282016000905560038201600061068991906109f2565b50506001600081548092919061069e90610eae565b91905055507f9c0cce8d563144cb9d17b3b2fae510e37811e7065b35355f0c438d8cdcdcbd92826040516106d29190610c79565b60405180910390a15b80806106e690610f0a565b9150506104c3565b5050565b60046020528060005260406000206000915090505481565b60005b6002805490508110156108a05760005460028281548110610757577f4e487b7100000000000000000000000000000000000000000000000000000000600052603260045260246000fd5b906000526020600020906004020160010154141561088d577fc89124561657cde152b4a16694351598efa4173570fa316d07dcc0b683e5376c82600283815481106107cb577f4e487b7100000000000000000000000000000000000000000000000000000000600052603260045260246000fd5b90600052602060002090600402016001015460028481548110610817577f4e487b7100000000000000000000000000000000000000000000000000000000600052603260045260246000fd5b90600052602060002090600402016002015460028581548110610863577f4e487b7100000000000000000000000000000000000000000000000000000000600052603260045260246000fd5b90600052602060002090600402016003016040516108849493929190610d1e565b60405180910390a15b808061089890610f0a565b91505061070d565b5050565b600281815481106108b457600080fd5b90600052602060002090600402016000915090508060000154908060010154908060020154908060030180546108e990610ed8565b80601f016020809104026020016040519081016040528092919081815260200182805461091590610ed8565b80156109625780601f1061093757610100808354040283529160200191610962565b820191906000526020600020905b81548152906001019060200180831161094557829003601f168201915b5050505050905084565b82805461097890610ed8565b90600052602060002090601f01602090048101928261099a57600085556109e1565b82601f106109b357805160ff19168380011785556109e1565b828001600101855582156109e1579182015b828111156109e05782518255916020019190600101906109c5565b5b5090506109ee9190610a32565b5090565b5080546109fe90610ed8565b6000825580601f10610a105750610a2f565b601f016020900490600052602060002090810190610a2e9190610a32565b5b50565b5b80821115610a4b576000816000905550600101610a33565b5090565b6000610a62610a5d84610d9b565b610d6a565b905082815260208101848484011115610a7a57600080fd5b610a85848285610e6c565b509392505050565b600081359050610a9c81610ff1565b92915050565b600082601f830112610ab357600080fd5b8135610ac3848260208601610a4f565b91505092915050565b600081359050610adb81611008565b92915050565b600060208284031215610af357600080fd5b6000610b0184828501610a8d565b91505092915050565b600060208284031215610b1c57600080fd5b6000610b2a84828501610acc565b91505092915050565b60008060408385031215610b4657600080fd5b6000610b5485828601610acc565b925050602083013567ffffffffffffffff811115610b7157600080fd5b610b7d85828601610aa2565b9150509250929050565b610b9081610e30565b82525050565b6000610ba182610de0565b610bab8185610deb565b9350610bbb818560208601610e7b565b610bc481610fe0565b840191505092915050565b60008154610bdc81610ed8565b610be68186610deb565b94506001821660008114610c015760018114610c1357610c46565b60ff1983168652602086019350610c46565b610c1c85610dcb565b60005b83811015610c3e57815481890152600182019150602081019050610c1f565b808801955050505b50505092915050565b610c5881610e62565b82525050565b6000602082019050610c736000830184610b87565b92915050565b6000602082019050610c8e6000830184610c4f565b92915050565b6000606082019050610ca96000830186610c4f565b610cb66020830185610c4f565b8181036040830152610cc88184610b96565b9050949350505050565b6000608082019050610ce76000830187610c4f565b610cf46020830186610c4f565b610d016040830185610c4f565b8181036060830152610d138184610b96565b905095945050505050565b6000608082019050610d336000830187610c4f565b610d406020830186610c4f565b610d4d6040830185610c4f565b8181036060830152610d5f8184610bcf565b905095945050505050565b6000604051905081810181811067ffffffffffffffff82111715610d9157610d90610fb1565b5b8060405250919050565b600067ffffffffffffffff821115610db657610db5610fb1565b5b601f19601f8301169050602081019050919050565b60008190508160005260206000209050919050565b600081519050919050565b600082825260208201905092915050565b6000610e0782610e62565b9150610e1283610e62565b925082821015610e2557610e24610f53565b5b828203905092915050565b6000610e3b82610e42565b9050919050565b600073ffffffffffffffffffffffffffffffffffffffff82169050919050565b6000819050919050565b82818337600083830152505050565b60005b83811015610e99578082015181840152602081019050610e7e565b83811115610ea8576000848401525b50505050565b6000610eb982610e62565b91506000821415610ecd57610ecc610f53565b5b600182039050919050565b60006002820490506001821680610ef057607f821691505b60208210811415610f0457610f03610f82565b5b50919050565b6000610f1582610e62565b91507fffffffffffffffffffffffffffffffffffffffffffffffffffffffffffffffff821415610f4857610f47610f53565b5b600182019050919050565b7f4e487b7100000000000000000000000000000000000000000000000000000000600052601160045260246000fd5b7f4e487b7100000000000000000000000000000000000000000000000000000000600052602260045260246000fd5b7f4e487b7100000000000000000000000000000000000000000000000000000000600052604160045260246000fd5b6000601f19601f8301169050919050565b610ffa81610e30565b811461100557600080fd5b50565b61101181610e62565b811461101c57600080fd5b5056fea26469706673582212203e531738c8428e45a2ced4afe9820a330fb89e0a1e7ff629fc89af20882e51d664736f6c63430008000033",
  "immutableReferences": {},
  "source": "// SPDX-License-Identifier: MIT\r\npragma solidity >=0.8.0 <0.9.0;\r\n\r\n\r\ncontract Twitter {\r\n    struct Tweet {\r\n        uint256 tweetOwner;\r\n        uint256 tweetId;\r\n        uint256 tweetTime;\r\n        string tweetMsg;\r\n    }\r\n\r\n    uint256 tweetId;\r\n    uint256 totalTweets;\r\n    Tweet[] public tweets;\r\n\r\n    // Event to notify\r\n    event CreateTweet(uint256 tweetOwner, uint256 tweetId,uint256 tweetTime, string tweetMsg);\r\n    event ReadTweet(uint256 tweetOwner, uint256 tweetId,uint256 tweetTime, string tweetMsg);\r\n    event UpdateTweet(uint256 tweetId,uint256 tweetTime, string tweetMsg);\r\n    event DeleteTweet(uint256 tweetOwner);\r\n    \r\n    mapping (uint256 => address) public tweetOwner;\r\n    mapping (address => uint) public tweetCount;\r\n\r\n    function _createTweet(uint256 Owner, string memory tweetMsg) public {\r\n        tweets.push(Tweet(Owner, tweetId, block.timestamp, tweetMsg));\r\n        tweetId == tweets.length - 1;\r\n        tweetOwner[tweetId] = msg.sender;\r\n        tweetCount[msg.sender] ++;\r\n        totalTweets++;\r\n\r\n        emit CreateTweet(Owner, tweetId, block.timestamp, tweetMsg);\r\n\t}\r\n\r\n    function _readTweet(uint256 OwnerId) public {\r\n        for (uint256 i = 0; i < tweets.length ; i++) {\r\n            if (tweets[i].tweetId == tweetId) {\r\n                emit ReadTweet(OwnerId, tweets[i].tweetId, tweets[i].tweetTime, tweets[i].tweetMsg);       \r\n            }\r\n        }\r\n    }\r\n\r\n    function _updateTweet(uint256 ownerId, string memory tweetMsg) public {\r\n        for (uint256 i = 0; i < tweets.length ; i++) {\r\n            if (tweets[i].tweetOwner == ownerId) {\r\n                tweets[i].tweetTime = block.timestamp;\r\n                tweets[i].tweetMsg = tweetMsg;\r\n                emit UpdateTweet(ownerId, block.timestamp, tweetMsg);\r\n            }\r\n        }\r\n    }\r\n\r\n    function _deleteTweet(uint256 ownerId) public {\r\n        for (uint256 i = 0; i < tweets.length ; i++) {\r\n            if (tweets[i].tweetOwner == ownerId) {\r\n\r\n                tweetCount[msg.sender] -= 1;\r\n                tweetOwner[tweets[i].tweetId] = address(0);\r\n                delete tweets[i];\r\n                totalTweets--;\r\n                emit DeleteTweet(ownerId);\r\n            }\r\n        }\r\n    }\r\n\r\n}",
  "sourcePath": "C:/Users/Subaandh/Blockchain/Twitter/contracts/Twitter.sol",
  "compiler": {
    "name": "solc",
    "version": "0.8.0+commit.c7dfd78e.Emscripten.clang"
  },
  "schemaVersion": "3.4.0",
  "updatedAt": "2021-05-18T15:06:03.537Z",
  "networkType": "ethereum",
  "devdoc": {
    "kind": "dev",
    "methods": {},
    "version": 1
  },
  "userdoc": {
    "kind": "user",
    "methods": {},
    "version": 1
  }
}